:020000040800F2
:100000008055002089150008312200083D22000893
:10001000452200084D22000855220008000000007B
:100020000000000000000000000000005D22000849
:10003000692200080000000075220008711F0008F6
:10004000F9150008F9150008F9150008F915000858
:10005000F9150008F9150008F9150008F915000848
:10006000F9150008F9150008F9150008F915000838
:10007000F9150008F9150008F9150008F915000828
:10008000F9150008F9150008F9150008F915000818
:10009000F9150008F9150008F9150008F915000808
:1000A000F9150008F9150008F9150008F9150008F8
:1000B000F9150008F9150008F9150008F9150008E8
:1000C000F9150008F9150008F9150008F9150008D8
:1000D00081220008F9150008F9150008F915000833
:1000E000F9150008F9150008B11F0008F9150008F6
:1000F000F9150008F9150008F9150008F9150008A8
:10010000F9150008F9150008F9150008F915000897
:10011000F9150008F9150008F9150008F915000887
:10012000F9150008F9150008F9150008F915000877
:10013000F9150008F9150008F9150008F915000867
:10014000F9150008F9150008F9150008A11F0008A5
:10015000F9150008F9150008F9150008F915000847
:10016000F9150008F9150008F9150008F915000837
:10017000F9150008F9150008F9150008F915000827
:10018000F9150008F915000890B484B000AF0246D4
:100190000B46FA71BB710023FB60BB7903F00303CC
:1001A0009B000F2202FA03F3FB60154BBA79920809
:1001B000D2B21349B8798008C0B2023051F8200099
:1001C000F968C9430140023243F822100C4BBA7956
:1001D0009208D2B20A49B8798008C0B2023051F808
:1001E0002000FC79B97901F00301890004FA01F1DA
:1001F0000143023243F822101037BD4690BC7047CD
:100200000038014080B485B000AF78600023FB6007
:100210007B68DB684FF0FF325A607B68DB684FF029
:10022000FF325A61FB7B43F08003FB737B7B43F01F
:1002300008037B737B68DB68FA689A611437BD46F4
:100240005DF8047B704700BF80B586B000AF786072
:100250000023FB7400237B610023FB60032002F07A
:1002600085FC7B68DB681B69FB607B6901337B6114
:100270007A69174B9A4201D9002325E0FB68C3F342
:10028000C073DBB2002BE9D000237B61FB6843F035
:100290000103FB607B68DB68FA681A617B68DB68D6
:1002A0001B69FB607B6901337B617A69084B9A4269
:1002B00000D905E0FB68C3F30003DBB2012BEDD0EE
:1002C000032002F053FCFB7C18461837BD4680BD66
:1002D000400D030080B489B000AFF860B960FA71D6
:1002E000BB800023FB76FB68DB78002B22D1002348
:1002F0007B610023FB61BB880333002B00DA0333EF
:100300009B107B61FB79FA6832339B0013449B6836
:100310003B610023FB6109E0BB681A683B691A6016
:10032000FB690133FB61BB680433BB60FA697B691D
:100330009A42F1D3FB7E18462437BD465DF8047B14
:10034000704700BF80B489B000AFF860B960134651
:10035000FB800023FB61FB880333002B00DA0333AF
:100360009B10BB61FB68D3F8D0307B610023FB613D
:1003700009E07B691A68BB681A60FB690133FB619D
:10038000BB680433BB60FA69BB699A42F1D3BB68AE
:1003900018462437BD465DF8047B704780B487B0AB
:1003A00000AF78600B46FB7000233B610023FB73BA
:1003B0007B680022DA707B6801229A707B68402299
:1003C0009A80FB78012B13D14FF0A0433B617B68EF
:1003D0000122DA727B6808221A707B6804225A7044
:1003E0007B684FF4A072DA807B6802221A7211E0F7
:1003F000FB78002B0ED1454B3B617B680022DA7203
:100400007B680C221A707B6806225A707B684FF456
:10041000A062DA803A697B68DA603B6903F50063C1
:100420001A467B681A6100237B611CE07B695A01D4
:100430003B69134403F510631A4679687B690433FA
:100440009B000B449A607B695A013B69134403F596
:1004500030631A4679687B6914339B000B445A60F9
:100460007B6901337B617B685B781A467B699A42C2
:10047000DCD83B6903F580631A467B685A613B69A7
:1004800003F588631A467B68C3F8CC2000237B61A0
:100490000FE07B695A013B69134403F5A0631A46D8
:1004A00079687B6922339B000B449A607B69013336
:1004B0007B617B681B781A467B699A42E9D80023E6
:1004C0007B610FE07B691A033B69134403F580539A
:1004D0001A4679687B6932339B000B449A607B69CA
:1004E00001337B617B681B781A467B699A42E9D8A5
:1004F0003B6903F560631A467B68C3F80C21FB7BFC
:1005000018461C37BD465DF8047B70470000044068
:1005100080B588B000AF78600023FB770023BB6113
:1005200000237B610023FB607B681B7A012B4FD18A
:100530007B68DB689B6B7B61BB7D6FF30003BB75E6
:100540007B685B7A002B03D0BB7D43F01003BB7547
:100550007B68DB687A699A630023BB617B68DB6830
:10056000DB68BB613B7E6FF386133B76BB7E6FF32C
:100570008613BB763B7E43F010033B763B7E6FF3E6
:10058000C3033B763B7E6FF3C7133B76BB7E6FF3B3
:100590004103BB76BB7E6FF3C303BB767B68DB682E
:1005A000BA69DA607868FFF74FFE7B68DB78012B69
:1005B00040F082803B7B052262F344033B733B7B2C
:1005C00043F020033B737B68DB68FA689A6073E052
:1005D0007B68DB68DB68BB613B7E43F040033B76B6
:1005E0007B68DB68BA69DA607868FFF72DFE002364
:1005F0007B61BB7D43F00103BB757B681B7A032BDA
:1006000003D1BB7D43F00203BB75BB7D43F0040304
:10061000BB75BB7D43F00803BB75BB7D43F0200376
:10062000BB757B685B7A002B03D0BB7D43F0100366
:10063000BB757B68DB687A699A63142002F0BAFAAA
:100640007B68DB68DB68BB617B681B7A032B03D1AB
:10065000BB7E43F00103BB767B68DB68BA69DA6076
:100660007B681B7A032B27D17B68DB681B6B3B61A4
:10067000FB7C012262F38303FB74BB7C6FF3C71323
:10068000BB74FB7C43F01003FB74BB7C2D2262F334
:100690000603BB747B68DB683A691A63C82002F002
:1006A00089FABB7C43F08003BB747B68DB683A69E2
:1006B0001A63C82002F07EFA7B68DB78012B10D128
:1006C0007B68DB689B68FB603B7B052262F344032D
:1006D0003B733B7B43F020033B737B68DB68FA682A
:1006E0009A60FB7F18462037BD4680BD80B485B038
:1006F00000AF78600023FB730023BB603B7A43F0BC
:1007000001033B727B68DB687A68D2689168BA68DB
:100710000A439A60FB7B18461437BD465DF8047B9C
:10072000704700BF80B485B000AF78600023FB73D2
:100730000023BB603B7A43F001033B727B68DB68BC
:100740007A68D2689168BA68D2430A409A60FB7BA3
:1007500018461437BD465DF8047B704780B586B0F7
:1007600000AF786039600023FB7400237B610023B5
:10077000FB60FB6843F02003FB603B68DBB203F0E7
:100780001F03DAB2FB6862F38A13FB607B68DB68E5
:10079000FA681A617B68DB681B69FB607B6901335F
:1007A0007B617A69084B9A4200D905E0FB68C3F384
:1007B0004013DBB2012BEDD0032002F0D7F9FB7C14
:1007C00018461837BD4680BD400D030080B586B081
:1007D00000AF78600023FB7400237B610023FB6083
:1007E000FB6843F01003FB607B68DB68FA681A6102
:1007F0007B68DB681B69FB607B6901337B617A691D
:10080000084B9A4200D905E0FB68C3F30013DBB242
:10081000012BEDD0032002F0A9F9FB7C1846183714
:10082000BD4680BD400D030080B584B000AF786048
:100830000B46FB700023FB737B68DB68DB68BB60E7
:10084000FB7A6FF34513FB72FB7A6FF38613FB722F
:10085000FB78012B04D1FB7A43F02003FB7206E006
:10086000FB78002B03D1FB7A43F04003FB727B68DB
:10087000DB68BA68DA60322002F09CF9FB7B18462C
:100880001037BD4680BD00BF80B483B000AF786034
:100890007B68DB685B6903F0010318460C37BD46D3
:1008A0005DF8047B704700BF80B582B000AF786010
:1008B0007868FFF7E9FF0346012B0CBF00230123F3
:1008C000DBB218460837BD4680BD00BF80B485B096
:1008D00000AF78600023FB607B68DB685B69FB60CE
:1008E0007B68DB689B69FA681340FB60FB6818460D
:1008F0001437BD465DF8047B704700BF80B485B0F7
:1009000000AF78600B46FB707B681B691B68FB605F
:10091000FB7803F00303DAB23B7B62F301033B7322
:100920007B681B69FA681A601437BD465DF8047B62
:10093000704700BF80B58CB000AF7860002387F8A7
:100940002B3000237B6200233B620023FB610023EA
:10095000BB6100237B617B68D3F80C3100221A60F5
:100960007B681B691B683B6297F821306FF3C403F7
:1009700087F821307B681B693A6A1A607B68DB7AEA
:10098000012B40D178680321FFF7B8FF7B68DB6853
:1009900080225A62FB8B402262F30F03FB83BB8BE6
:1009A000802262F30F03BB837B68DB68FA699A627B
:1009B000BA8BFB8B13449BB23B837B8B802262F30D
:1009C0000F037B837B68DB68BA69C3F804213A8B29
:1009D0007B8B13449BB23B837B8B6FF30F037B8337
:1009E0007B68DB68BA69C3F808213A8B7B8B1344B8
:1009F0009BB23B837B8B6FF30F037B837B68DB684E
:100A0000BA69C3F80C2178681021FFF7A7FE78684F
:100A1000FFF7DCFE7B681B6900221A617B681B699B
:100A200000225A617B681B694FF0FF329A617B6834
:100A30001B690022DA610023FB623AE07A68FB6AF4
:100A400004339B0013449B681B687B6297F8273034
:100A5000C3F3C013DBB2002B0ED000237B6297F8E8
:100A6000273043F0400387F8273097F8273043F0CA
:100A7000080387F8273001E000237B627A68FB6A6D
:100A800004339B0013449B687A6A1A607A68FB6A95
:100A900004339B0013449B6800221A617A68FB6A46
:100AA00004339B0013449B68FF229A60FB6A013366
:100AB000FB627B685B781A46FB6A9A42BED80023C9
:100AC000FB6235E07A68FB6A14339B0013445B6871
:100AD0001B68FB60FB7BC3F3C013DBB2002B0AD0A7
:100AE0000023FB60FB7B43F04003FB73FB7B43F085
:100AF0000803FB7301E00023FB607A68FB6A143390
:100B00009B0013445B68FA681A607A68FB6A1433C6
:100B10009B0013445B6800221A617A68FB6A1433F5
:100B20009B0013445B68FF229A60FB6A0133FB62FF
:100B30007B685B781A46FB6A9A42C3D800237B61C4
:100B40007B7D43F001037B757B681B697A681269C2
:100B500011697A69D24311407A690A431A617B6844
:100B6000DB78012B1BD100233B613B7C43F001036D
:100B70003B743B7C43F002033B743B8A402262F3AC
:100B80008A033B82BB7C43F00103BB747B8A402217
:100B900062F349037B827B681B693A691A63786850
:100BA00000F006F897F82B3018463037BD4680BD68
:100BB00080B584B000AF78600023FB730023BB6076
:100BC0007B68DB6800229A617B68DB684FF0FF324C
:100BD0005A617868FFF716FB7B68DB78002B03D13E
:100BE0003B7A43F010033B727B7A43F008037B723D
:100BF0007B7A43F010037B727B7A43F020037B7295
:100C0000BB7A43F00403BB72BB7A43F00803BB72A8
:100C10003B7A43F008033B72BB7A43F01003BB728C
:100C2000BB7A43F02003BB727B68DB687A68D268CA
:100C30009169BA68D2431140BA680A439A61FB7B52
:100C400018461037BD4680BD80B485B000AF7860CF
:100C50000023FB737B681B699B68BB603B7AC3F313
:100C60004103DBB2022B09D0032B04D0012B02D0AD
:100C70000323FB7305E00223FB7302E00123FB73F4
:100C800000BFFB7B18461437BD465DF8047B7047F8
:100C900080B487B000AF78600023FB750023BB6091
:100CA0007B681B699B683B617B689B691B68FB6079
:100CB0003B7CC3F34103DBB2022B04D0BB896FF34F
:100CC0000A03BB8105E0BB89032262F30A03BB81EF
:100CD00000BF7B689B69FA681A607B7A43F0010366
:100CE0007B727B681B697A6812695168BA68D24363
:100CF0001140BA680A435A60FB7D18461C37BD464E
:100D00005DF8047B704700BF80B487B000AF7860A7
:100D100039600023FB740023FB600023BB603B6849
:100D20005B78012B0FD13B681B787A6804339B00FA
:100D300013449B687B613B681B78012202FA03F332
:100D40009BB23B810EE03B681B787A6814339B00B2
:100D500013445B687B613B681B78012202FA03F352
:100D60009BB27B817B691B68FB607B7BC3F3C013F9
:100D7000DBB2002B27D13B689B689BB2C3F30A030D
:100D80009AB2BB8962F30A03BB813B68DB7803F04C
:100D90000303DAB2BB7B62F38303BB733B68DB887C
:100DA000DBB203F00F03DAB2FB8962F38913FB8134
:100DB000FB7B43F01003FB737B7B43F080037B736F
:100DC000FA687B691A607B681B697A681269D16965
:100DD000BA680A43DA61FB7C18461C37BD465DF8E9
:100DE000047B704780B487B000AF7860396000231F
:100DF000FB740023FB600023BB603B685B78012B26
:100E00000FD13B681B787A6804339B0013449B68BE
:100E10007B613B681B78012202FA03F39BB23B81A2
:100E20000EE03B681B787A6814339B0013445B68C0
:100E30007B613B681B78012202FA03F39BB27B8142
:100E40007B7B6FF3C7137B73FA687B691A607B68DF
:100E50001B697A681269D169BA68D2430A40DA61BB
:100E6000FB7C18461C37BD465DF8047B704700BF0D
:100E700080B588B000AF786039600023FB7700232D
:100E8000BB6100237B6100233B613B685B78012BE6
:100E900040F0AB803B681B787A6804339B001344B6
:100EA0009B681B687B613B681B787A6804339B00F6
:100EB00013449B681B693B613B685B69002B09D14C
:100EC0003B696FF312033B617B8A012262F3CC031F
:100ED0007B8222E03B685B69C3F312023B6962F3E9
:100EE00012033B613B685A693B689B6813445A1E76
:100EF0003B689B68B2FBF3F39BB2C3F309039AB25E
:100F00007B8A62F3CC037B823B68DB78012B04D1C4
:100F1000FB7C012262F34613FB743B681B787A6802
:100F200004339B0013449B683A691A617B68DB7841
:100F3000012B0AD13B681B787A6804339B00134469
:100F40009B683A6812695A6115E03B68DB78012BAF
:100F500011D03B685B69002B0DD03B681B780122E8
:100F600002FA03F3BB617B681B697A681269516BF3
:100F7000BA690A435A633B68DB78012B14D17B685A
:100F80001B699B68FB60FB68C3F30D239BB203F0F6
:100F90000103002B04D1FB7D43F02003FB7503E02C
:100FA000FB7D43F01003FB75FB7D43F00403FB75F1
:100FB000FB7D43F08003FB753B681B787A68043344
:100FC0009B0013449B687A691A603B68DB78012BAD
:100FD00040F088803B68D9683B681A783B685B6959
:100FE0009BB27868FFF776F97CE03B681B787A68FB
:100FF00014339B0013445B681B687B613B681B7860
:101000007A6814339B0013445B681B693B613B683F
:101010005B69002B0DD13B689B68C3F312023B69EF
:1010200062F312033B617B8A012262F3CC037B8271
:101030001FE03B685A693B689B6813445A1E3B6833
:101040009B68B2FBF3F39BB2C3F309039AB27B8AAA
:1010500062F3CC037B827B8AC3F3C9039BB23A68F9
:10106000926802FB03F3C3F312023B6962F31203BB
:101070003B613B681B787A6814339B0013445B68C0
:101080003A691A617B68DB78012B09D13B681B78D0
:101090007A6814339B0013445B683A6812695A619A
:1010A0003B68DB78012B0CD13B685B79002B04D0CB
:1010B000FB7D43F02003FB7503E0FB7D43F0100351
:1010C000FB75FB7D43F00403FB75FB7D43F0800360
:1010D000FB753B681B787A6814339B0013445B688C
:1010E0007A691A60FB7F18462037BD4680BD00BF75
:1010F00080B489B000AF786039600023FB770023AB
:10110000BB6100233B610023BB603B685B78012B24
:101110006FD17B689B697B617B691B683B617B69E5
:101120001B69BB603B685B69002B09D13B7A6FF39D
:1011300006033B72BB7A012262F3C403BB7223E055
:101140003B685A693B689B689A420ED93B689A682B
:101150003B685A613B689B68DBB203F07F03DAB2FD
:101160003B7A62F306033B7209E03B685B69DBB2E2
:1011700003F07F03DAB23B7A62F306033B72BB7A79
:10118000012262F3C403BB72BA687B691A617B688F
:10119000DB78012B09D13B681B787A6804339B000C
:1011A00013449B683A6812695A61FB7C43F004035C
:1011B000FB74FB7C43F08003FB743A697B691A6023
:1011C0007B68DB78002B75D13B685B69002B71D0A5
:1011D0003B681B78012202FA03F3BA691343BB612F
:1011E0007B681B697A681269516BBA690A435A6352
:1011F00060E03B681B787A6814339B0013445B689B
:101200001B683B613B681B787A6814339B0013446E
:101210005B681B69BB603B685B69002B0FD13B6857
:101220009B68DBB203F07F03DAB23B7A62F306031A
:101230003B72BB7A012262F3C403BB7212E03B68CB
:101240009A683B685A613B689B68DBB203F07F0396
:10125000DAB23B7A62F306033B72BB7A012262F395
:10126000C403BB723B681B787A6814339B00134439
:101270005B68BA681A617B68DB78012B09D13B682F
:101280001B787A6814339B0013445B683A681269D0
:101290005A61FB7C43F00403FB74FB7C43F0800346
:1012A000FB743B681B787A6814339B0013445B68BB
:1012B0003A691A60FB7F18462437BD465DF8047B07
:1012C000704700BF80B487B000AF786039600023FA
:1012D000FB750023FB603B685B78012B1CD13B68EE
:1012E0001B787A6804339B0013449B683B613B691D
:1012F0001B68FB60FB7BC3F3C013DBB2002B03D086
:10130000FB7B43F04003FB73BB7B43F02003BB73C9
:10131000FA683B691A6011E03B681B787A681433FD
:101320009B0013445B683B613B691B68FB60BB7BB4
:1013300043F02003BB73FA683B691A60FB7D1846D3
:101340001C37BD465DF8047B704700BF80B487B092
:1013500000AF786039600023FB740023FB603B68BA
:101360005B78012B08D13B681B787A6804339B00BB
:1013700013449B687B6107E03B681B787A681433F1
:101380009B0013445B687B617B691B68FB60BB7BD4
:101390006FF34513BB733B68DB78032B03D03B68CB
:1013A000DB78022B03D1FB7B43F01003FB73FA685D
:1013B0007B691A60FB7C18461C37BD465DF8047BD0
:1013C000704700BF80B485B000AF78607B681B6950
:1013D0009B69FB607B681B69DB69FA681340FB60F3
:1013E000FB681B0C18461437BD465DF8047B70473C
:1013F00080B485B000AF78600B46FB70FB787A68EC
:1014000014339B0013445B689B68FB607B681B691B
:101410005B69FA681340FB60FB6818461437BD46E9
:101420005DF8047B704700BF80B485B000AF786082
:101430007B681B699B69FB607B681B69DB69FA68D9
:101440001340FB60FB689BB218461437BD465DF83D
:10145000047B704780B487B000AF786000233B61A5
:10146000FB7C43F0C003FB74BB7C012262F3C4032A
:10147000BB743B7C182262F306033B747B685B6D94
:101480003A691A617B68DB78012B16D10023FB6077
:101490007B685B6D7A6802F5B9625A617B685B6D47
:1014A0001B68FB60FB7B43F08003FB734FF08023E2
:1014B000FB607B685B6DFA681A601C37BD465DF89F
:1014C000047B704780B485B000AF78607B689B7AFE
:1014D000002B1BD07B681B699B68FB603B7BC3F3C5
:1014E0000003DBB2012B11D17B6803F586731B6807
:1014F000BB603B7A6FF341033B723B7A6FF30003AF
:101500003B727B68D3F80C31BA681A601437BD4659
:101510005DF8047B704700BF80B400AFBD465DF846
:10152000047B704780B483B000AF0346FB71FB7946
:10153000002B02D0012B02D002E000BF00E000BF70
:101540000C37BD465DF8047B704700BF80B400AF28
:10155000BD465DF8047B704780B400AFBD465DF8C2
:10156000047B704780B400AFBD465DF8047B7047D4
:1015700080B400AFBD465DF8047B704780B400AF17
:10158000BD465DF8047B704780B582B000AF144B58
:101590007B60144B3B6007E03B681A1D3A607A6839
:1015A000111D796012681A603A680F4B9A42F3D3A2
:1015B0000E480F494FF000028842B8BF40F8042B94
:1015C000FFF6FAAFDFF82C00016841F4700101600A
:1015D00001F094F900F0BEFA0837BD4680BD00BFA7
:1015E000D0C2000800000020440400204404002071
:1015F0007C4D002088ED00E080B400AFFEE700BF26
:1016000080B588B000AF02460B46FA71BB7101236A
:101610001846012100F0F6FC4FF48040012100F053
:101620004BFD00233B770023FB770123BB61FA7955
:10163000174B53F8222007F118031046194600F003
:1016400019FFBB79012B1FD1002200231046194638
:10165000FEF79AFD01233B6100233B7508237B7550
:101660000123BB7507F11003184603F071F8062338
:101670003B730F237B730F23BB730123FB7307F1B2
:101680000C03184603F0F2F82037BD4680BD00BFBA
:101690002C00002080B582B000AF0346FB71FA79C0
:1016A000064B53F8222001231046194600F070FF24
:1016B000034618460837BD4680BD00BF2C000020F9
:1016C00080B584B000AFF8607A603B600B46FB7277
:1016D000F86801F0DBF9F86800F01CF8FB683A687C
:1016E000C3F8E025FB68BA69C3F8E425FB687A68AB
:1016F000C3F8E825FB7AF868194603F015F9FB688A
:10170000D3F8E4351B689847F86801F017FA1037EA
:10171000BD4680BD80B483B000AF7860002318461A
:101720000C37BD465DF8047B704700BF80B584B0C0
:1017300000AF786007F108037868194601F020FED1
:101740003B7A03F01F03012B0AD0022B0FD0002B92
:1017500014D107F108037868194601F03BFA16E046
:1017600007F108037868194601F084FA0FE007F1E1
:1017700008037868194601F0B1FA08E03B7A23F0D3
:101780007F03DBB27868194603F050FA00BF0023EC
:1017900018461037BD4680BD80B584B000AF786074
:1017A0000B46FB70FB78002B45D17B6803F55C731F
:1017B000FB607B6893F81131032B4FD1FB68DA692A
:1017C000FB689B689A4221D9FB68DA69FB689B68D1
:1017D000D21AFB68DA617B68DB78012B06D1FB68E3
:1017E000DA68FB689B681A44FB68DA60FB68DA68B1
:1017F000FB689968FB68DB69994238BF0B469BB26E
:10180000786811461A4603F0F7FA27E07B68D3F8A8
:10181000E0351B69002B0AD07B6893F81231032B4B
:1018200005D17B68D3F8E0351B69786898477868FC
:1018300003F0F6FA12E07B68D3F8E0359B69002BE1
:101840000CD07B6893F81231032B07D17B68D3F857
:10185000E0359B69FA787868114698470023184666
:101860001037BD4680BD00BF80B584B000AF786042
:101870000B46FB70FB78002B60D17B6803F58C7303
:10188000FB607B6893F81131022B6AD1FB68DA693F
:10189000FB689B689A421CD9FB68DA69FB689B6805
:1018A000D21AFB68DA617B68DB78012B06D1FB6812
:1018B000DA68FB689B681A44FB68DA60FB68DA68E0
:1018C000FB68DB699BB2786811461A4603F060FA40
:1018D00047E0FB681B6AFA689268B3FBF2F102FB0F
:1018E00001F29B1A002B14D1FB681A6AFB689B68F3
:1018F0009A420ED3FB681A6AFB685B6A9A4208D266
:1019000078680021002203F043FAFB6800225A6243
:1019100027E07B68D3F8E035DB68002B0AD07B68D2
:1019200093F81231032B05D17B68D3F8E035DB68DF
:1019300078689847786803F08BFA12E07B68D3F8F0
:10194000E0355B69002B0CD07B6893F81231032BD8
:1019500007D17B68D3F8E0355B69FA78786811467F
:101960009847002318461037BD4680BD80B582B029
:1019700000AF7860786800214022002303F054F81B
:10198000786880214022002303F04EF87B68012212
:1019900083F812217B68D3F8E4355B687A68927823
:1019A00010469847002318460837BD4680BD00BF43
:1019B00080B582B000AF78607B68D3F8E4351B69EE
:1019C00098477B68032283F81221002318460837C2
:1019D000BD4680BD80B582B000AF78607B680422D0
:1019E00083F812217B68D3F8E435DB68984700233D
:1019F00018460837BD4680BD80B582B000AF78601C
:101A00007B68D3F8E035DB69002B05D07B68D3F821
:101A1000E035DB6978689847002318460837BD46EB
:101A200080BD00BF80B582B000AF78600B46FB7010
:101A30007B68D3F8E0351B68FA78786811469847D8
:101A40007B68D3F8E4359B6898470023184608372D
:101A5000BD4680BD80B582B000AF78600B46FB709C
:101A60007B68D3F8E0355B68FA7878681146984768
:101A7000002318460837BD4680BD00BF80B582B040
:101A800000AF78607B68D3F8E0351B6A78689847C8
:101A9000002318460837BD4680BD00BF80B582B020
:101AA00000AF78607B68D3F8E0355B6A7868984768
:101AB000002318460837BD4680BD00BF80B483B000
:101AC00000AF03463960FB7197F90730002B0BDA42
:101AD0000D49FB7903F00F03043B3A68D2B21201BF
:101AE000D2B20B441A7609E0084997F907303A68F0
:101AF000D2B21201D2B20B4483F800230C37BD4698
:101B00005DF8047B704700BF00ED00E000E100E0FD
:101B100080B582B000AF78607B68B3F1807F01D37D
:101B2000012311E00A4B7A6822F07F42013A5A60A1
:101B30004FF0FF300F21FFF7C1FF054B00229A60E5
:101B4000034B07221A60002318460837BD4680BDA4
:101B500010E000E080B58AB002AF00F0D5F900F0E7
:101B6000BDF900F04BF900F095F98E4B4FF47A5225
:101B70001A808C4B8C4A9A608A4B8C4A5A60894BEB
:101B800001229A81874B0122DA81864803F0ECF921
:101B900001230093864887494FF40062002300F038
:101BA000E5FA00200021FFF72BFD83484FF4405158
:101BB00000F008FD00BF0020FFF76CFD0346002B7E
:101BC000F9D000BF0020FFF765FD0346012BF9D0D7
:101BD00079484FF4405100F003FD784BBB6100237E
:101BE0007B61774B01221A7000233B61754B1B68A8
:101BF000B3F5FA7F04D1704B4FF400525A830BE0D7
:101C0000704B1B68B3F57A7F06D16E4B00221A60C9
:101C1000694B4FF400521A83BB1D184600F042FE78
:101C20000346002B00F0B8800023FB60664B674A38
:101C30001A606748012102F0F1FC0023BB60A7E0B5
:101C40000020FFF727FD0346012B27D100BF00200E
:101C5000FFF720FD0346012BF9D057484FF47041A0
:101C600000F0B0FC0023FB6102E0FB690133FB6183
:101C7000FB69B3F1807FF8D34F484FF4704100F017
:101C8000AFFC544A3B461188927819809A703B46C3
:101C90001846032100F090FD00BF7DE04E4B1B680D
:101CA000002B75D04C4B00221A604C4B1B68012B4B
:101CB00009D1454B454A1A60494B4A4A1A60474B7D
:101CC00000221A6008E0404B464A1A60444B3F4AE3
:101CD0001A60424B01221A600023FB6155E0424B1F
:101CE0001B88B3F5006F24D23F4B1B885A1C91B25E
:101CF0003D4A11801A463A4B1968FB695B000B4458
:101D000019883A4B23F81210394B1B88B3F5006F32
:101D100038D1374B00221A8036484FF4805100F0FA
:101D20004BFD254B4FF480521A83334B0A221A6025
:101D300028E02F4B1B88B3F5006F23D22C4B1B8858
:101D40005A1C91B22A4A11801A46254B1968FB6920
:101D50005B000B441988274B23F81210224B1B8879
:101D6000B3F5006F0ED1204B00221A801F484FF4AC
:101D7000805100F021FD104B4FF480521A831E4B0E
:101D80000A221A60FB690133FB61FB690F2BA6D99C
:101D9000FB68002B7FF754AF0D48002102F03EFC9A
:101DA0001BE700BF98150020000020410000FA4505
:101DB00014150020CC2B0020000C02406F12833A37
:101DC000901500200C05002094150020002C002008
:101DD000003800403462000850040020480400200D
:101DE000CC150020E02B002044040020DC1500204E
:101DF0004604002014050020D415002080B584B0CE
:101E000000AF0820012100F0FDF84FF470433B6063
:101E100001233B710023BB7103237B710023FB7102
:101E20003B461948194600F025FB4FF48063BB6020
:101E300002233B730023BB730023FB7302237B73DA
:101E400007F108031148194600F014FB0823BB6092
:101E500002233B730023BB730023FB7302237B73BA
:101E600007F108030A48194600F004FB07480A2155
:101E7000052200F0C3FB06480321052200F0BEFB4B
:101E80001037BD4680BD00BF000C02400004024078
:101E90000008024080B584B000AF0F4802F0ACFAF1
:101EA0004FF4FA43BB6020237B800023BB800823D0
:101EB000BB814FF440733B800023FB803B460648C8
:101EC000194602F0D3FA04486021012202F0D4FB43
:101ED0001037BD4680BD00BF0038004080B582B0DD
:101EE00000AF4FF4C06002F0AFFC24233B7101232C
:101EF000FB7100237B710123BB713B1D184602F06F
:101F0000B5FC0837BD4680BD80B582B002AF41F256
:101F10000600012100F076F84FF48040012100F026
:101F2000ADF8012000F05EF80820012100F06AF809
:101F3000094B1A68094BA3FB02139B091846FFF7CC
:101F4000E7FD074B009307480121074A074BFFF7BE
:101F5000B7FBBD4680BD00BFBC000020D34D621062
:101F600000000020DC250020600000201801002077
:101F700080B400AF084B1B685A1C074B1A60074B14
:101F80001B68002B04D0054B1B685A1E034B1A60BC
:101F9000BD465DF8047B70470C050020D415002079
:101FA00080B500AF014801F0ABFA80BDDC25002010
:101FB00080B500AF094B9B7A002B0AD0084B084A2A
:101FC000126822F006021A6000F098FC0348FFF73E
:101FD00079FA4FF4802002F029FC80BDDC25002036
:101FE00010ED00E080B483B000AF0346FB71044BFA
:101FF000FA791A600C37BD465DF8047B704700BF64
:102000006800474280B483B000AF78600B46FB7035
:10201000FB78002B06D0094B084A116B7A680A43FB
:102020001A6306E0054B054A116B7A68D2430A40F1
:102030001A630C37BD465DF8047B704700380240D8
:1020400080B483B000AF78600B46FB70FB78002B48
:1020500006D0094B084A516B7A680A435A6306E076
:10206000054B054A516B7A68D2430A405A630C37D4
:10207000BD465DF8047B70470038024080B483B0F1
:1020800000AF78600B46FB70FB78002B06D0094B45
:10209000084A116C7A680A431A6406E0054B054A3F
:1020A000116C7A68D2430A401A640C37BD465DF859
:1020B000047B70470038024080B483B000AF786082
:1020C0000B46FB70FB78002B06D0094B084A516C7D
:1020D0007A680A435A6406E0054B054A516C7A68EF
:1020E000D2430A405A640C37BD465DF8047B704702
:1020F0000038024080B483B000AF78600B46FB70BC
:10210000FB78002B06D0094B084A116A7A680A430B
:102110001A6206E0054B054A116A7A68D2430A4002
:102120001A620C37BD465DF8047B704700380240E8
:1021300080B483B000AF78600B46FB70FB78002B57
:1021400006D0094B084A516A7A680A435A6206E087
:10215000054B054A516A7A68D2430A405A620C37E5
:10216000BD465DF8047B70470038024080B586B0FC
:1021700000AFF860B9607A603B600023FB757B6854
:102180009BB21A46FB681A607B689BB25B089AB2E6
:10219000FB689A80FB68244ADA60FB68234A1A616C
:1021A0003B68DAB2FB689A713B6ADAB2FB68DA71B3
:1021B000FB681B68B3F5007F09D0B3F5006F02D050
:1021C000802B08D00BE0FB6801229A600AE0FB68D4
:1021D00004229A6006E0FB6810229A6002E0FF2366
:1021E000FB7500BFFB68BA685A61FB689B79002BDE
:1021F0000AD0FB685A69FB689B8810461946012281
:10220000002302F03DFE09E0FB685A69FB689B88E9
:10221000104619460022002302F032FEFB7D5BB21D
:1022200018461837BD4680BD38620008388200085D
:1022300080B400AFBD465DF8047B704780B400AF4A
:10224000FEE700BF80B400AFFEE700BF80B400AF80
:10225000FEE700BF80B400AFFEE700BF80B400AF70
:10226000BD465DF8047B704780B400AFBD465DF8A5
:10227000047B704780B400AFBD465DF8047B7047B7
:1022800080B582B000AF1B48602102F025FA0346FA
:10229000002B2BD0174802F0E1F90346FB80164BC8
:1022A0001B68591C144A1160FA88120A92B291B242
:1022B000FA88120292B20A4392B291B20F4A22F8FD
:1022C00013100D4B1B683F2B10D90B4B00221A60CB
:1022D0003223BB800A4B1A68BB88084811461A464D
:1022E000084B02F0C5FE084B01221A600837BD46B4
:1022F00080BD00BF003800404C0400208C0400204A
:1023000094150020981500205004002080B483B05C
:1023100000AF03463960FB713B6812221A80034B01
:1023200018460C37BD465DF8047B70477C000020E2
:1023300080B483B000AF03463960FB713B68042270
:102340001A80034B18460C37BD465DF8047B704776
:102350009C00002080B582B000AF03463960FB715D
:10236000FB79002B05D1084808493A6801F072F85A
:1023700004E0074805493A6801F06CF8034B184639
:102380000837BD4680BD00BF38A20008BC2C002025
:102390005CA2000880B582B000AF03463960FB71D3
:1023A000044805493A6801F055F8034B18460837C8
:1023B000BD4680BD80A20008BC2C002080B582B044
:1023C00000AF03463960FB71FB79002B05D108484B
:1023D00008493A6801F03EF804E0074805493A68C0
:1023E00001F038F8034B18460837BD4680BD00BFE2
:1023F00094A20008BC2C0020A4A2000880B582B0E2
:1024000000AF03463960FB71FB79002B05D108480A
:1024100008493A6801F01EF804E0054805493A68A1
:1024200001F018F8034B18460837BD4680BD00BFC1
:10243000B4A20008BC2C002080B582B000AF0346D7
:102440003960FB71FB79002B05D1084808493A68CF
:1024500001F000F804E0054805493A6800F0FAFF89
:10246000034B18460837BD4680BD00BFC0A2000818
:10247000BC2C002080B487B000AF786039600023A6
:102480007B6100233B610023FB6000237B6176E0DE
:102490007B69012202FA03F33B613B681A683B69DE
:1024A0001340FB60FA683B699A4265D17B681A6801
:1024B0007B695B00032101FA03F3DB431A407B686D
:1024C0001A607B681A683B681B7919467B695B0058
:1024D00001FA03F31A437B681A603B681B79012BEE
:1024E00003D03B681B79022B2ED17B689A687B69ED
:1024F0005B00032101FA03F3DB431A407B689A6017
:102500007B689A683B685B7919467B695B0001FAD6
:1025100003F31A437B689A607B685A687B699BB2B5
:10252000012101FA03F3DB431A407B685A607B68A0
:102530005A683B689B7919467B699BB201FA03F3A1
:102540009BB21A437B685A607B68DA687B699BB2EE
:102550005B00032101FA03F3DB431A407B68DA6076
:102560007B68DA683B68DB7919467B695B0001FAB6
:1025700003F31A437B68DA607B6901337B617B6913
:102580000F2B85D91C37BD465DF8047B704700BF13
:1025900080B485B000AF78600B467B800023FB736E
:1025A0007B681A697B881340002B02D00123FB73E0
:1025B00001E00023FB73FB7B18461437BD465DF832
:1025C000047B704780B483B000AF78600B467B809B
:1025D0007B687A881A830C37BD465DF8047B7047A8
:1025E00080B483B000AF78600B467B807B687A88CC
:1025F0005A830C37BD465DF8047B704780B485B0C4
:1026000000AF786013460A467A807B700023FB6037
:102610000023BB607A787B8803F007039B0002FAF3
:1026200003F3FB607B88DB089BB21A467B88DB08E0
:102630009BB219467B68083153F821107B8803F060
:1026400007039B000F2000FA03F3DB4319407B686C
:10265000083243F822107B88DB089BB21A467B685D
:10266000083253F82220FB681343BB607B88DB08E9
:102670009BB21A467B680832B96843F822101437B7
:10268000BD465DF8047B704780B400AF0023184658
:10269000BD465DF8047B704780B400AF0023184648
:1026A000BD465DF8047B704780B485B000AFF8602C
:1026B000B9607A60FB68232B74D801A252F823F02A
:1026C000A5270008A5270008A5270008A5270008BA
:1026D000A5270008A5270008A5270008A5270008AA
:1026E000A5270008A5270008A5270008A52700089A
:1026F000A5270008A5270008A5270008A52700088A
:10270000A5270008A5270008A5270008A527000879
:10271000A5270008A5270008A5270008A527000869
:10272000A5270008A5270008A5270008A527000859
:10273000A5270008A5270008A5270008A527000849
:10274000A527000851270008A5270008A52700088D
:10275000184B1B68DAB2BB681A70BB680133154AA4
:102760001268120AD2B21A70BB680233114A126898
:10277000120CD2B21A70BB6803330E4A1268120EE2
:10278000D2B21A70BB6804330A4A12791A70BB6855
:102790000533084A52791A70BB680633054A9279A4
:1027A0001A7000E000BF002318461437BD465DF8DC
:1027B000047B7047A000002080B582B000AF786035
:1027C00039603B687868194600F004F80837BD4660
:1027D00080BD00BF80B485B000AF78603960002351
:1027E000FB6017E0114B1B687968FA680A4411789E
:1027F0000F4AD1540D4B1B685A1C0C4B1A60FB68D6
:102800000133FB60094B1B68B3F5005F02D1074B36
:1028100000221A60FA683B689A42E3D30023184604
:102820001437BD465DF8047B704700BF700400207C
:102830007C2D002080B485B000AF78603960002323
:10284000FB601EE0144B1B687968FA680A44117833
:10285000124AD154104B1B685A1C0F4B1A600E4B76
:102860001B68802B02D10C4B00221A600A4B1A689D
:102870000B4B1B689A4201D1022307E0FB6801332E
:10288000FB60FA683B689A42DCD300231846143791
:10289000BD465DF8047B7047B82C0020242C002036
:1028A000A42C002080B483B000AF7860104B1A686D
:1028B000104B1B689A4201D1002312E00D4B1B689C
:1028C0000D4AD25C7B681A700A4B1B685A1C094B74
:1028D0001A60084B1B68802B02D1064B00221A603D
:1028E000012318460C37BD465DF8047B704700BFD6
:1028F000B82C0020A42C0020242C002080B500AF90
:10290000154B154AD2F8882042F47002C3F888208B
:10291000124B124A126842F001021A600F4B002259
:102920009A600E4A0D4B1B6823F0847323F48033A6
:1029300013600A4B0A4A5A60084B084A126822F48C
:1029400080221A60054B0022DA6000F00BF8024B7F
:102950004FF000629A6080BD00ED00E00038024058
:102960001030002480B483B000AF00237B600023CC
:102970003B60414B404A126842F480321A603E4B41
:102980001B6803F400333B607B6801337B603B686A
:10299000002B03D17B68B3F5A06FF0D1364B1B68D9
:1029A00003F40033002B02D001233B6001E000233D
:1029B0003B603B68012B42D12F4B2F4A126C42F0F7
:1029C00080521A642D4B2D4A126842F480421A60DC
:1029D000294B294A92689A60274B274A926842F409
:1029E00000429A60244B244A926842F4A0529A60B2
:1029F000214B234A5A60204B1F4A126842F08072D2
:102A00001A6000BF1C4B1B6803F00073002BF9D049
:102A10001C4B40F205621A60174B174A926822F06D
:102A200003029A60144B144A926842F002029A60C0
:102A300000BF114B9B6803F00C03082BF9D10E4B20
:102A40000D4A926822F400029A600B4B0E4AC3F8BA
:102A50008420094B084A126842F080621A6000BF65
:102A6000054B1B6803F00063002BF9D00C37BD4603
:102A70005DF8047B704700BF0038024000700040E2
:102A800008544007003C02408040003080B584B0CC
:102A900000AF786001200121FFF7B4FA4FF4D8535A
:102AA000BB6003237B7302233B730023BB730023B0
:102AB000FB7307F1080320481946FFF7DBFC1E48AB
:102AC00008210A22FFF79AFD1B4809210A22FFF775
:102AD00095FD19480B210A22FFF790FD16480C219D
:102AE0000A22FFF78BFD4FF48063BB600123BB73A9
:102AF0000123FB7303237B7307F108030E48194678
:102B0000FFF7B8FC0C480A210A22FFF777FD4FF4C3
:102B100080400121FFF7D0FA80200121FFF790FAD1
:102B20004FF080500121FFF7E5FA012001F07EFE11
:102B30001037BD4680BD00BF0000024080B584B0A4
:102B400000AF78604FF4C06001F07EFE43233B731A
:102B500001237B730323BB730123FB7307F10C0376
:102B6000184601F083FE1037BD4680BD80B485B0A5
:102B700000AF78600023FB607A6813461B019B1A44
:102B8000DB001A460A4BA3FB0213D21A5208134465
:102B90009B08BB60FB680133FB60FA68BB689A4224
:102BA00000D900E0F6E71437BD465DF8047B7047B6
:102BB0002549922480B582B000AF78607B684FF4DD
:102BC0007A7202FB03F31846FFF7D0FF0837BD46C1
:102BD00080BD00BF80B584B000AF7860396000234D
:102BE000FB733B685B78092B39D801A252F823F0BC
:102BF000412C0008552C00085F2C00084B2C0008C5
:102C00005F2C0008232C0008192C00085F2C0008FA
:102C1000372C00082D2C00087868396800F036F948
:102C200022E07868396800F00DFA1DE078683968AC
:102C300000F046FA18E07868396800F0BBFA13E053
:102C40007868396800F0E6FA0EE07868396800F0D4
:102C500009FB09E07868396800F06AFB04E07868ED
:102C6000396800F0D3FB00BFFB7B18461037BD4628
:102C700080BD00BF80B584B000AF786039600023AC
:102C8000FB737B6893F81231032B1CD13B689B8844
:102C9000DBB2012B11D87B68D3F8E0359B687868EC
:102CA000396898473B68DB88002B0BD1FB7B002BF6
:102CB00008D1786802F0B4F80AE07868396800F062
:102CC000A5FB05E004E07868396800F09FFB00BFD1
:102CD000FB7B18461037BD4680BD00BF80B584B071
:102CE00000AF786039600023FB733B689B88BB733F
:102CF0003B685B78012B39D0032B02D0002B6BD0C3
:102D0000BCE07B6893F81231022B02D0032B0DD06C
:102D100026E0BB7B002B08D0BB7B802B05D0BB7B88
:102D20007868194601F082FF1FE01EE03B685B886F
:102D3000002B0AD1BB7B002B07D0BB7B802B04D0A0
:102D4000BB7B7868194601F071FF7B68D3F8E035EA
:102D50009B68786839689847786802F061F804E001
:102D60007868396800F052FB00BF87E07B6893F811
:102D70001231022B02D0032B0DD027E0BB7B002B9E
:102D800008D0BB7B802B05D0BB7B7868194601F04F
:102D90004DFF20E01FE03B685B88002B15D1BB7B1B
:102DA000002B0ED0BB7B802B0BD0BB7B78681946E9
:102DB00001F076FF7B68D3F8E0359B687868396866
:102DC0009847786802F02CF805E004E078683968E4
:102DD00000F01CFB00BF51E07B6893F81231022B1E
:102DE00002D0032B0DD043E0BB7B002B08D0BB7B74
:102DF000802B05D0BB7B7868194601F017FF3CE0BB
:102E00003BE0BB7B5BB2002B15DABB7B03F07F02A0
:102E1000796813469B001344DB000B4403F58C7365
:102E20009B78002B03D0184B01221A601AE0164B36
:102E300000221A6016E0BB7B5BB2002B12DBBA7B70
:102E4000796813469B001344DB000B4403F55C7365
:102E50009B78002B03D00C4B01221A6002E00A4B36
:102E600000221A6078680849022201F071FF04E02C
:102E70007868396800F0CAFA00BF00BFFB7B1846CB
:102E80001037BD4680BD00BF5C04002080B584B013
:102E900000AF786039603B685B881B0A9BB2013BDE
:102EA000062B00F2B18001A252F823F0C92E0008CF
:102EB000FB2E0008252F0008093000080930000803
:102EC000F52F0008FF2F00087B68D3F8E8351B6852
:102ED0007A68917807F10A02084611469847F86027
:102EE0003B68DB88402B04D07B6893F81231012BC0
:102EF00002D108237B818CE08BE07B68D3F8E0353E
:102F00009B6A7A68917807F10A0208461146984749
:102F1000F860FB68013302221A707B68FA68C3F814
:102F2000EC2576E03B685B88DBB2052B5CD801A220
:102F300052F823F04D2F0008672F0008812F00085A
:102F40009B2F0008B52F0008CF2F00087B68D3F80F
:102F5000E8355B687A68917807F10A0208461146FD
:102F60009847F86045E07B68D3F8E8359B687A6855
:102F7000917807F10A02084611469847F86038E050
:102F80007B68D3F8E835DB687A68917807F10A0244
:102F9000084611469847F8602BE07B68D3F8E8357F
:102FA0001B697A68917807F10A020846114698472A
:102FB000F8601EE07B68D3F8E8355B697A68917841
:102FC00007F10A02084611469847F86011E07B684D
:102FD000D3F8E8359B697A68917807F10A020846C8
:102FE00011469847F86004E07868396800F00EFAF6
:102FF00024E00EE07868396800F008FA1EE078688E
:10300000396800F003FA19E07868396800F0FEF9D1
:1030100014E07B89002B11D03B68DB88002B0DD09E
:103020003B68DA887B899A4238BF13469BB27B8122
:103030007B897868F9681A4601F08AFE1037BD4628
:1030400080BD00BF80B584B000AF786039603B6858
:103050009B88002B2DD13B68DB88002B29D13B6856
:103060005B88DBB203F07F03FB737B6893F812315C
:10307000032B04D17868396800F0C8F918E07B6840
:10308000FA7B83F81321FB7B7868194601F042FE36
:10309000786801F0C5FEFB7B002B04D07B68022220
:1030A00083F8122104E07B68012283F8122104E0F6
:1030B00003E07868396800F0A9F91037BD4680BD93
:1030C00080B582B000AF786039603B685B88DAB267
:1030D000374B1A70364B1B78012B04D97868396846
:1030E00000F094F960E07B6893F81231022B02D073
:1030F000032B1BD053E02E4B1B78002B12D02C4BF4
:103100001A787B6883F810217B68032283F81221E8
:10311000274B1B7878681946FEF784FC786801F025
:103120007FFE41E0786801F07BFE3DE0204B1B789C
:10313000002B12D17B68022283F812211C4B1A78D3
:103140007B6883F810211A4B1B7878681946FEF7C4
:1031500081FC786801F064FE20E07B6893F8102120
:10316000134B1B789A4215D07B6893F8103178681E
:103170001946FEF76FFC0E4B1A787B6883F8102116
:103180000B4B1B7878681946FEF74CFC786801F009
:1031900047FE03E0786801F043FE05E004E078684C
:1031A000396800F033F900BF0837BD4680BD00BF65
:1031B0006804002080B582B000AF786039603B6859
:1031C000DB88012B04D07868396800F01FF91BE018
:1031D0007B6893F81231022B02D0032B06D00EE04D
:1031E00078680B49012201F0B3FD0DE07B6803F51F
:1031F000887378681946012201F0AAFD04E0786816
:10320000396800F003F900BF0837BD4680BD00BF34
:103210006004002080B582B000AF786039607B68C0
:1032200093F81231023B012B11D87B68D3F814318B
:10323000002B03D00A4B03221A6002E0084B012244
:103240001A6078680649012201F082FD04E078687E
:10325000396800F0DBF800BF0837BD4680BD00BF0D
:103260006404002080B584B000AF7860396000232A
:10327000FB733B685B88012B0ED17B680122C3F88E
:1032800014217B68D3F8E0359B68786839689847E3
:10329000786801F0C5FD48E03B685B88022B44D1AB
:1032A0003B689B88DBB2002B3FD17B681B695B6866
:1032B000BB603B689B881B0A9BB2FB73FB7B013B9B
:1032C000042B2BD801A252F823F000BFE1320008F2
:1032D000ED320008F9320008053300081133000808
:1032E0003B7A012262F306133B7217E03B7A02221B
:1032F00062F306133B7211E03B7A032262F306137A
:103300003B720BE03B7A042262F306133B7205E04A
:103310003B7A052262F306133B7200BF7B681B6990
:10332000BA685A60786801F07BFD1037BD4680BDF1
:1033300080B582B000AF786039607B6893F8123155
:10334000023B012B13D83B685B88012B0ED17B68B5
:103350000022C3F814217B68D3F8E0359B687868B5
:1033600039689847786801F05BFD05E004E078680B
:10337000396800F04BF800BF0837BD4680BD00BF7C
:1033800080B483B000AF786039607B6893F8C8255B
:103390003B681A707B6893F8C9253B685A707B6854
:1033A00093F8CA351A467B6893F8CB351B029BB25B
:1033B00013449AB23B685A807B6893F8CC351A461E
:1033C0007B6893F8CD351B029BB213449AB23B68DD
:1033D0009A807B6893F8CE351A467B6893F8CF3590
:1033E0001B029BB213449AB23B68DA803B68DB88CD
:1033F0001A467B68C3F83C217B68012283F81121BF
:103400000C37BD465DF8047B704700BF80B582B0C5
:1034100000AF786039603B681B78DBB25BB2002B91
:1034200004DA7868802101F001FC0CE03B68DB885D
:10343000002B04D17868802101F0F8FB03E0786864
:10344000002101F0F3FB7868FEF704F80837BD4669
:1034500080BD00BF80B586B000AFF860B9607A600B
:103460000023FB75FB68002B2FD0F86800F030F8C4
:10347000034601339BB25B009AB27B681A80FB7DE6
:103480005A1CFA75BA6813447A681288D2B21A7054
:10349000FB7D5A1CFA75BA68134403221A7010E0B7
:1034A000FB7D5A1CFA75BA681A44FB68591CF9600E
:1034B0001B781370FB7D5A1CFA75BA6813440022FE
:1034C0001A70FB681B78002BEAD11837BD4680BD07
:1034D00080B485B000AF78600023FB7305E0FB7B10
:1034E0000133FB737B6801337B607B681B78002BA7
:1034F000F5D1FB7B18461437BD465DF8047B704759
:1035000080B586B000AF786000237B617868FDF7F6
:10351000CBF90346002B00F09C807868FDF7D6F9C4
:1035200003463B613B69002B01D1002392E0BB7C49
:10353000C3F3C003DBB2002B06D0786800F012FAA8
:1035400003467A6913437B61BB7CC3F38003DBB220
:10355000002B06D0786800F00FF903467A69134310
:103560007B613B7CC3F34003DBB2002B09D000231B
:10357000FB603B7B43F002033B737B68DB68FA68CC
:103580005A61FB7CC3F3C013DBB2002B06D0786812
:1035900000F064F803467A6913437B617B7CC3F3D4
:1035A000C003DBB2002B06D0786800F097F8034622
:1035B0007A6913437B613B7CC3F3C003DBB2002B0E
:1035C00006D0786800F08AFA03467A6913437B6173
:1035D0003B7CC3F30013DBB2002B06D0786800F00D
:1035E00097FA03467A6913437B617B7CC3F300132C
:1035F000DBB2002B06D0786800F07EFB03467A69C8
:1036000013437B617B7CC3F34013DBB2002B06D0FA
:10361000786800F013FC03467A6913437B61BB7C36
:10362000C3F30013DBB2002B06D0786800F042FC35
:1036300003467A6913437B61BB7CC3F34013DBB25F
:10364000002B06D0786800F04FFC03467A691343DC
:103650007B617B6918461837BD4680BD80B586B052
:1036600000AF78607B689B7A002B11D07B6803F5F4
:1036700086731B68FB603B7B6FF341033B733B7BB3
:103680006FF300033B737B68D3F80C31FA681A6060
:1036900000233B613B7C43F001033B747B681B6967
:1036A0007A68126951683A69D2430A405A600A4BF3
:1036B0001B689B697868984700237B61FB7D43F01A
:1036C0008003FB757B68DB687A695A6101231846C1
:1036D0001837BD4680BD00BF5C00002080B586B0B5
:1036E00000AF7860224B1B685B69786898477B68FD
:1036F0001B699B68FB6000237B617B7D43F00803B3
:103700007B757B68DB687A695A617B689B7A002BE2
:1037100029D03B7BC3F30003DBB2012B23D1002371
:103720003B613B7C43F001033B747B68D3F80C3175
:103730007A68D2F80C2111683A690A431A603B7C16
:1037400043F002033B747B68D3F80C317A68D2F8FB
:103750000C2111683A690A431A60064B054A12693E
:1037600042F006021A61012318461837BD4680BD93
:103770005C00002000ED00E080B586B000AF78600E
:1037800000233B610023BB607868FDF74DFE786144
:10379000DCE07B6903F00103002B00F0D1803B6982
:1037A000DBB27868194600F0B9FB0346BB603B7A90
:1037B000C3F30003DBB2002B32D03B69012202FAD3
:1037C00003F3FB607B681B697A681269516BFA68C6
:1037D000D2430A405A630023BB603B7A43F00103A3
:1037E0003B727A683B6904339B0013449B68BA6858
:1037F0009A605B4B1B685B683A69D2B27868114685
:1038000098477B68DB78012B0AD13B69002B07D1F5
:103810007B6893F81131042B02D17868FDF71AFE0A
:103820003B7AC3F38003DBB2002B0DD00023BB60D7
:103830003B7A43F004033B727A683B6904339B0094
:1038400013449B68BA689A603B7AC3F3C003DBB247
:10385000002B0DD00023BB603B7A43F008033B7282
:103860007A683B6904339B0013449B68BA689A608A
:103870003B7AC3F30013DBB2002B0DD00023BB60F7
:103880003B7A43F010033B727A683B6904339B0038
:1038900013449B68BA689A603B7AC3F34013DBB267
:1038A000002B0DD00023BB603B7A43F020033B721A
:1038B0007A683B6904339B0013449B68BA689A603A
:1038C0003B7AC3F38013DBB2002B0DD00023BB6027
:1038D0003B7A43F040033B727A683B6904339B00B8
:1038E00013449B68BA689A603B7AC3F34003DBB227
:1038F000002B0DD00023BB603B7A43F002033B72E8
:103900007A683B6904339B0013449B68BA689A60E9
:103910003B7AC3F3C013DBB2002B11D0786839694E
:1039200000F078F90023BB603B7A43F080033B72E0
:103930007A683B6904339B0013449B68BA689A60B9
:103940003B6901333B617B695B087B617B69002BD1
:103950007FF41FAF012318461837BD4680BD00BF56
:103960005C00002080B586B000AF786000233B612A
:103970000023FB607868FDF725FD7861A3E07B6993
:1039800003F00103002B00F098803B69DBB27868FC
:103990001946FDF72DFD0346FB603B7BC3F3000397
:1039A000DBB2002B48D00023FB603B7B43F00103DC
:1039B0003B737A683B6914339B0013445B68FA6875
:1039C0009A607B68DB78012B1FD17A683B691433DE
:1039D0009B0013445B681B69BB6079683A691346B6
:1039E0009B001344DB000B4403F55E731A68BB684D
:1039F000C3F31203D11A78683A6913469B00134443
:103A0000DB00034403F562731960334B1B681B68CA
:103A10003A69D2B27868114698477B68DB78012B07
:103A20000AD13B69002B07D17B6893F81131052B34
:103A300002D17868FDF70EFD3B7BC3F34003DBB298
:103A4000002B0DD00023FB603B7B43F002033B7354
:103A50007A683B6914339B0013445B68FA689A6088
:103A60003B7BC3F38003DBB2002B0DD00023FB6054
:103A70003B7B43F004033B737A683B6914339B0040
:103A800013445B68FA689A603B7BC3F3C003DBB204
:103A9000002B12D0104B1B689B6878689847002356
:103AA000FB603B7B43F008033B737A683B6914334C
:103AB0009B0013445B68FA689A603B6901333B6181
:103AC0007B695B087B617B69002B7FF458AF012326
:103AD00018461837BD4680BD5C00002080B584B014
:103AE00000AF7860094B1B68DB6878689847002353
:103AF000FB603B7B43F008033B737B68DB68FA6841
:103B00005A61012318461037BD4680BD5C00002075
:103B100080B586B000AF786000233B613B7C43F00A
:103B200010033B747B68DB687A68D26891693A69F4
:103B3000D2430A409A617B68DB681B6AFB603B7B6F
:103B4000C3F30303DBB21A4613469B001344DB00A6
:103B500003F55C737A6813447B61BB7BC3F3430357
:103B6000DBB2013B052B46D801A252F823F000BF7F
:103B7000F73B0008893B0008F73B0008F73B0008CB
:103B8000F73B0008D33B0008BB89C3F30A139BB281
:103B9000002B1DD07B69DA68BB89C3F30A139BB283
:103BA000786811461A46FCF7CDFB7B69DA68BB8959
:103BB000C3F30A139BB21A447B69DA607B699A6982
:103BC000BB89C3F30A139BB21A447B699A6113E061
:103BD00012E07B6803F5B963786819460822FCF7A0
:103BE000B1FB7B699A69BB89C3F30A139BB21A4480
:103BF0007B699A6100E000BF7B68DB687A68D26805
:103C000091693A690A439A61012318461837BD46FB
:103C100080BD00BF80B586B000AF786039600023FA
:103C20007B610023BB603A6813469B001344DB00B2
:103C300003F58C737A681344FB60FB685A69FB6870
:103C40009B69D31A7B61FB689A687B699A4202D2AE
:103C5000FB689B687B617B6903339B083B617A68E7
:103C60003B6804339B0013449B689B69BB602EE058
:103C7000FB685A69FB689B69D31A7B61FB689A6889
:103C80007B699A4202D2FB689B687B617B69033344
:103C90009B083B61FB68D9683B68DAB27B699BB2E1
:103CA0007868FCF717FBFB68DA687B691A44FB68E5
:103CB000DA60FB689A697B691A44FB689A617A68E2
:103CC0003B6804339B0013449B689B69BB603B8942
:103CD0001A463B699A4209D9FB689A69FB685B6995
:103CE0009A4203D2FB685B69002BC1D101231846BD
:103CF0001837BD4680BD00BF80B58AB000AF786080
:103D000000233B6100233B620023FB610023BB6176
:103D100000237B610023FB603B7C43F001033B7489
:103D20007B681B697A68126951683A69D2430A4014
:103D30005A6078680021FCF711FD00237B6212E0D5
:103D40007A687B6A04339B0013449B68FF229A6065
:103D50007A687B6A14339B0013445B68FF229A6085
:103D60007B6A01337B627B685B781A467B6A9A4286
:103D7000E6D87B681B694FF0FF329A613B8C0122C9
:103D800062F30F033B847B8C012262F30F037B847D
:103D90007B681B693A6ADA613B7F43F008033B7733
:103DA0003B7F43F001033B773B7F43F004033B77CA
:103DB0003B7F43F002033B777B681B69FA695A61DA
:103DC0003B7E43F001033B763B7E43F008033B76AA
:103DD0003B7E43F002033B763B7E43F004033B769D
:103DE0003B7E43F020033B767B681B69BA691A610E
:103DF0007B681B691B687B61BB8A6FF30A13BB82FC
:103E00007B681B697A691A607868FDF723FB0023D9
:103E1000FB607B7B43F010037B737B68DB68FA6895
:103E20005A61054B1B681B6978689847012318463F
:103E30002837BD4680BD00BF5C00002080B584B03F
:103E400000AF78607868FCF723FF7B68DB68DB688D
:103E5000BB607868FCF7F8FE0346032B0CD17B6847
:103E600000229A707B684FF400729A807B7A092254
:103E700062F385037B720AE07B6801229A707B689B
:103E800040229A807B7A052262F385037B727B68ED
:103E9000DB68BA68DA600023FB607B7B43F02003B9
:103EA0007B737B68DB68FA685A6101231846103718
:103EB000BD4680BD80B584B000AF78600023FB6054
:103EC000084B1B68DB6978689847BB7B43F010039D
:103ED000BB737B68DB68FA685A61012318461037A8
:103EE000BD4680BD5C00002080B584B000AF786026
:103EF0000023FB60084B1B681B6A78689847BB7BF4
:103F000043F02003BB737B68DB68FA685A610123C6
:103F100018461037BD4680BD5C00002080B487B0D5
:103F200000AF78600B46FB707B681B691B697B6187
:103F30007B681B695B6B3B61FB783A6922FA03F390
:103F4000DB01DBB27A6913437B61FB787A68043367
:103F50009B0013449B689A687B691340FB60FB6875
:103F600018461C37BD465DF8047B704780B584B0A9
:103F700000AF78600B46FB707B68D3F8EC353933C3
:103F80001B88786881211A46022300F04DFD7B686A
:103F9000D3F8EC3540331B88786801211A46022398
:103FA00000F042FD786882210822032300F03CFDE6
:103FB0000D4BFB60FB68043302221A70FB6805336B
:103FC00000221A70094B1B6898477B68D3F8EC35C0
:103FD00040331B8878680121054A00F0ABFD0023BF
:103FE00018461037BD4680BD7C000020A800002088
:103FF000342D002080B582B000AF78600B46FB7096
:104000007868812100F05EFD7868012100F05AFD9A
:104010007868822100F056FD034B5B6898470023C7
:1040200018460837BD4680BDA800002080B584B082
:1040300000AF786039603B681B7803F06003002BA9
:104040003FD0202B37D13B68DB88002B29D03B6841
:104050001B78DBB25BB2002B11DA364B9B683A68F7
:10406000527811463A68D2880846334998473B68E7
:10407000DB88786830491A4600F06AFE19E03B6830
:104080005B781A462D4B1A603B68DB881A462C4B2E
:104090001A603B68DB88786827491A4600F08CFE76
:1040A00007E0244B9B683A685278104600210022B2
:1040B000984700233AE078683968FFF7A7F90223A8
:1040C00034E03B685B780A2B18D00B2B1CD0062BF6
:1040D0002BD13B685B881B0A9BB2212B07D1194B64
:1040E000BB603B68DB883A2B28BF3A23FB81FB8906
:1040F0007868B9681A4600F02BFE16E07868124915
:10410000012200F025FE10E03B685B88DBB2002B4B
:1041100006D13B685B88DBB21A460B4B1A6003E0A2
:1041200078683968FFF772F900BF00231846103726
:10413000BD4680BDA8000020742D00201401002081
:1041400080040020E20000206C04002080B582B0D2
:1041500000AF78600A4B1B68FF2B0BD0094B9B68A4
:10416000074A1168084A1268084608499847044BEC
:10417000FF221A60002318460837BD4680BD00BFE5
:1041800014010020A800002080040020742D0020CD
:1041900080B584B000AF78600B46FB70284B1B786D
:1041A000012B48D1274B1B68002B03D1244B002245
:1041B0001A7040E07B68D3F8EC3539331B881A4617
:1041C000204B1B689A421ED21F4B1B68FB817B68E9
:1041D000D3F8EC35B3F83930BB817B68D3F8EC35D4
:1041E00039331B881A46184B1B681A44164B1A6041
:1041F000144B1A687B68D3F8EC3539331B88D21A14
:10420000104B1A600FE0104B1B68FB810D4B1B68B5
:10421000BB810D4B1A680B4B1B681A440A4B1A6082
:10422000084B00221A60FA89084B1A44BB89786847
:10423000812100F0BFFC002318461037BD4680BD29
:104240007C04002078040020740400207C2D0020D1
:1042500080B584B000AF78600B46FB70FA7879685F
:1042600013469B001344DB000B4403F562731B6889
:10427000FB810A4B1B69FA890948114698477B68FC
:10428000D3F8EC3540331B8878680121044A00F0EC
:1042900051FC002318461037BD4680BDA800002001
:1042A000342D002080B582B000AF7860084B1B68C9
:1042B000591C074A1160052B05D1054B00221A60D5
:1042C000786800F007F8002318460837BD4680BD1F
:1042D0008404002080B584B000AF7860384B1B7830
:1042E000012B69D0374B1B68B3F5005F02D1354B0A
:1042F00000221A60334B1A68334B1B689A4203D171
:104300002F4B00221A7057E02E4B1A682E4B1B6859
:104310009A4206D92B4B1B68C3F500522B4B1A60EF
:1043200006E0294B1A68274B1B68D21A274B1A60E4
:104330007B68D3F8EC3539331B881A46234B1B684E
:104340009A421ED21F4B1B68FB817B68D3F8EC3569
:10435000B3F83930BB817B68D3F8EC3539331B882F
:104360001A46184B1B681A44164B1A60174B1A68EA
:104370007B68D3F8EC3539331B88D21A134B1A609B
:104380000FE0104B1B68FB81104B1B68BB810D4B72
:104390001A680E4B1B681A440A4B1A600B4B00221A
:1043A0001A60074B01221A70FA89094B1A44BB891B
:1043B0007868812100F0FEFB1037BD4680BD00BF4C
:1043C0007C04002074040020700400207804002085
:1043D0007C2D002080B483B000AF03463960FB71B0
:1043E0003B6843221A80034B18460C37BD465DF8E4
:1043F000047B7047D000002080B582B000AF7860A9
:104400007A68174B9A420AD14FF480500121FDF788
:104410008FFE4FF480500021FDF78AFE1CE07A6881
:10442000104B9A420AD14FF480400121FDF762FE01
:104430004FF480400021FDF75DFE0DE07A680A4BE5
:104440009A4209D14FF400400121FDF753FE4FF489
:1044500000400021FDF74EFE0837BD4680BD00BF7D
:104460000030014000380040003C004080B48BB078
:1044700000AF7860396000237B830223FB84002334
:10448000BB8401237B840023FB6100237B61002329
:104490003B610023FB600023BB607B689B8B9BB26E
:1044A00023F47B6323F00F039AB27B689A837B68C3
:1044B00002221A847B689B8B7B833B689B68022B60
:1044C00004D10023BB840223FB8471E03B689B88FA
:1044D000002B02D101237B8401E002237B844C4B1F
:1044E0009B6803F40003002B05D0494B484A9268AF
:1044F00022F400029A60464BD3F8842047F6C0733A
:1045000013409B09C3F30803FB60414BD3F884308D
:1045100003F0E0431B0F03F00703BB603C4B5B68F9
:1045200003F03F033B613B4A3B69B2FBF3F3FA689C
:1045300002FB03F2BB68B2FBF3F37B613B68DB88F1
:10454000B3F5007F0FD17B691A0A13469B00134411
:104550005B001A463B689B68B2FBF3F39BB20533E2
:104560009BB2FB6111E07B8C5B017A69B2FBF3F2D9
:1045700013469B0013445B001A463B689B68B2FBE2
:10458000F3F39BB205339BB2FB61FA69224BA3FBA9
:104590000213DB08FB61FB699BB203F00103BB84E0
:1045A000BB8CFA69D31A5B08FB84BB8C1B02BB84EF
:1045B000FB8C012B02D9FB8CFF2B03D90223FB843C
:1045C0000023BB843B68DA88BB8C13439AB2FB8C14
:1045D00013439AB27B681A843B681A883B685988EF
:1045E0003B6898883B689B8903439BB20B439BB213
:1045F00013439AB27B8B13439BB243F400637B83D8
:104600007B687A8B9A832C37BD465DF8047B7047B4
:104610000038024000127A00CDCCCCCC80B483B0FC
:1046200000AF78600B46FB70FB78002B08D07B68EE
:104630009B8B9BB243F480639AB27B689A8307E0BA
:104640007B689B8B9BB223F480639AB27B689A83CE
:104650000C37BD465DF8047B704700BF80B483B063
:1046600000AF78607B689B899BB218460C37BD46CB
:104670005DF8047B704700BF80B485B000AF786000
:1046800013460A46FA70BB700023FB810023BB81EE
:10469000FB781B09DBB2FB81FB89012202FA03F3E1
:1046A000BB81BB78002B08D07B689B889AB2BB8902
:1046B00013439AB27B689A8009E07B689B889AB220
:1046C000BB89DB439BB213409AB27B689A80143754
:1046D000BD465DF8047B704780B485B000AF78605C
:1046E0000B46FB700023FB730023BB8100237B81FF
:1046F00000233B81FB7803F00F03012202FA03F34E
:10470000BB81FB781B09DBB27B817B89012202FA2A
:1047100003F37B817B689B889AB27B8913403B8142
:104720007B681B899AB2BB8913409BB2002B05D0D2
:104730003B89002B02D00123FB7301E00023FB73B4
:10474000FB7B18461437BD465DF8047B704700BFFD
:1047500080B485B000AF78600023FB60324BFB6013
:104760007B689B79002B4DD02F4B2F4A11687A68BC
:104770001268D2430A401A602B4B2B4A51687A6860
:104780001268D2430A405A607B681B79FA68134466
:10479000FB60FB68FA6811687A6812680A431A605D
:1047A000214B214A91687A681268D2430A409A6084
:1047B0001D4B1D4AD1687A681268D2430A40DA60FC
:1047C0007B685B79102B0ED1174B174A91687A687A
:1047D00012680A439A60144B134AD1687A681268C7
:1047E0000A43DA601BE0104BFB607B685B79FA6878
:1047F0001344FB60FB68FA6811687A6812680A4320
:104800001A600CE07B681B79FA681344FB60FB6854
:10481000FA6811687A681268D2430A401A6014373D
:10482000BD465DF8047B7047003C014080B483B016
:1048300000AF7860034B7A685A610C37BD465DF86B
:10484000047B7047003C014080B483B000AF7860C7
:10485000054A7B6843F0BF6343F40033D3600C37F1
:10486000BD465DF8047B704700ED00E080B485B084
:1048700000AF78600023FB730023BB730F237B73AF
:104880007B68DB78002B37D0254BDB68DB4303F4F8
:10489000E0631B0AFB73FB7BC3F10403BB737A7BEE
:1048A000FB7B42FA03F37B737B685B781A46BB7B26
:1048B00002FA03F3FB737B689A787B7B1340DAB2CE
:1048C000FB7B1343FB73FB7B1B01FB73154A7B686C
:1048D0001B781344FA7B83F80023124B7A68127812
:1048E0005209D2B27968097801F01F01012000FA5B
:1048F00001F143F822100EE00A4B7A68127852094F
:10490000D2B27968097801F01F01012000FA01F1A3
:10491000203243F822101437BD465DF8047B7047FF
:1049200000ED00E000E100E080B584B000AF786009
:104930000B46FB70FB7878681946FBF72FFD7B6808
:10494000012283F812217B68002283F813210023BF
:10495000FB6023E0FA6813469B001344DB0003F579
:104960008C737A681344BB60BB6801225A70FB6881
:10497000DAB2BB681A70FB689AB2BB68DA80BB68AF
:104980000022DA70BB6840229A60BB680022DA60BD
:10499000BB6800225A61FB680133FB607B685B786F
:1049A0001A46FB689A42D5D80023FB6023E0FA68D8
:1049B00013469B001344DB0003F55C737A681344D1
:1049C000BB60BB6800225A70FB68DAB2BB681A7021
:1049D000FB689AB2BB68DA80BB680022DA70BB68F9
:1049E00040229A60BB680022DA60BB6800225A61EC
:1049F000FB680133FB607B685B781A46FB689A4270
:104A0000D5D87868FBF78EFE7868FBF781FD78686B
:104A10000021FBF709FF7868FBF78CFF7868FBF74C
:104A200065FE1037BD4680BD80B584B000AF7860AC
:104A3000F9703A80BB70FB785BB2002B0CDAFB7824
:104A400003F07F0213469B001344DB0003F58C73D5
:104A50007A681344FB600BE0FB7803F07F02134697
:104A60009B001344DB0003F55C737A681344FB601E
:104A7000FB7803F07F03DAB2FB681A70FB78DB097E
:104A8000DBB21A46FB685A703A88FB689A60FB688A
:104A9000BA78DA70FB685B78002B04D0FB681B786F
:104AA0001A46FB68DA80BB78022B02D1FB68002231
:104AB0001A717868F968FCF727F90023184610374F
:104AC000BD4680BD80B584B000AF78600B46FB70FA
:104AD000FB785BB2002B0CDAFB7803F07F02134605
:104AE0009B001344DB0003F58C737A681344FB606E
:104AF0000BE0FB7803F07F0213469B001344DB00BE
:104B000003F55C737A681344FB60FB7803F07F0362
:104B1000DAB2FB681A70FB78DB09DBB21A46FB6875
:104B20005A707868F968FCF75DF900231846103769
:104B3000BD4680BD80B586B000AFF8607A600A4699
:104B4000FA723B81FB7A03F07F0213469B00134409
:104B5000DB0003F55C73FA6813447B617B697A6858
:104B6000DA603A897B695A617B6900229A617B69C4
:104B700000225A70FB7A03F07F03DAB27B691A7065
:104B8000FB68DB78012B02D17A687B691A617B694B
:104B90001B78002B04D1F8687969FCF7A9FA03E0C7
:104BA000F8687969FCF764F9002318461837BD46A0
:104BB00080BD00BF80B586B000AFF8607A603B6012
:104BC0000B46FB72FB7A03F07F0213469B001344F3
:104BD000DB0003F58C73FA6813447B617B69012267
:104BE0005A70FB7A03F07F03DAB27B691A707B6933
:104BF0007A68DA607A687B691A617B6900229A6157
:104C00007B693A685A617B691B78002B04D1F8688C
:104C10007969FCF76DFA03E0F8687969FCF728F91F
:104C2000002318461837BD4680BD00BF80B584B04C
:104C300000AF78600B46FB70FB785BB2002B0CDAA0
:104C4000FB7803F07F0213469B001344DB0003F55F
:104C50008C737A681344FB6009E0FA7813469B0072
:104C60001344DB0003F55C737A681344FB60FB6854
:104C700001229A70FB7803F07F03DAB2FB681A70A6
:104C8000FB78DB09DBB21A46FB685A707868F96872
:104C9000FCF718FB002318461037BD4680BD00BF47
:104CA00080B584B000AF78600B46FB70FB785BB2D8
:104CB000002B0CDAFB7803F07F0213469B001344B1
:104CC000DB0003F58C737A681344FB6009E0FA7823
:104CD00013469B001344DB0003F55C737A681344AE
:104CE000FB60FB6800229A70FB7803F07F03DAB266
:104CF000FB681A70FB78DB09DBB21A46FB685A7056
:104D00007868F968FCF722FB002318461037BD4687
:104D100080BD00BF80B485B000AF78600B46FB70EB
:104D20000023FB60FB7803F07F03DAB2BB8962F3F8
:104D30000A13BB817B681B697A6812691168FA687B
:104D40000A431A601437BD465DF8047B704700BF04
:104D500080B586B000AFF860B9601346FB800023D1
:104D6000FB75FA88FB68C3F83821FA88FB68C3F83A
:104D70003421FB68022283F81121FB88F8680021A6
:104D8000BA68FFF717FFFB7D18461837BD4680BD90
:104D900080B586B000AFF860B9601346FB80002391
:104DA000FB75FB88F8680021BA68FFF703FFFB7DFD
:104DB00018461837BD4680BD80B586B000AFF86094
:104DC000B9601346FB800023FB75FA88FB68C3F8C3
:104DD0009023FA88FB68C3F88C23FB68032283F8CE
:104DE0001121FB88F8680021BA68FFF7A3FEFB7D5C
:104DF00018461837BD4680BD80B586B000AFF86054
:104E0000B9601346FB800023FB75FB88F86800211E
:104E1000BA68FFF78FFEFB7D18461837BD4680BD88
:104E200080B584B000AF78600023FB737B680422F8
:104E300083F811217868002100220023FFF7BAFED1
:104E40007868FCF707FBFB7B18461037BD4680BD32
:104E500080B584B000AF78600023FB737B680522C7
:104E600083F811217868002100220023FFF762FEF9
:104E70007868FCF7EFFAFB7B18461037BD4680BD1B
:104E800080B485B000AF786079807A703B70002381
:104E9000FB737B687A881A807B682D4A5A607B682E
:104EA0007A789A707B683A78DA707B681B88402B36
:104EB00026D0402B02DC102B30D03DE0B3F5807FB4
:104EC00010D0B3F5806F37D17B6801229A817B685F
:104ED0000122DA817B681F4A9A607B684FF06A5230
:104EE0001A612CE07B6804229A817B680422DA81B3
:104EF0007B68194A9A607B684FF06E521A611EE017
:104F00007B6810229A817B681022DA817B68134AC1
:104F10009A607B684FF072521A6110E07B68402201
:104F20009A817B684022DA817B680D4A9A607B68AF
:104F30004FF076521A6102E0FF23FB7300BFFB7B48
:104F40005BB218461437BD465DF8047B704700BF5E
:104F5000D0A20008B45E0008BA5E0008D25E000865
:104F6000325F0008000000002DE9F84F3C4A3D4B3D
:104F700005461A601B683C4A0026934211D13B4A01
:104F8000476800F110041360E6600661A660666081
:104F9000A661666126613846002100F059FF08B11C
:104FA00026E0FEE738464FF0874100F0BDFD00F0F7
:104FB00035FB80463846894600F030FB0646288897
:104FC0000F4600F019FB24A3D3E9002300F0A4FC52
:104FD00002460B463046394600F0C2F902460B46FF
:104FE0004046494600F098FC00F07EFDA08300E0BA
:104FF000A683AF680021384600F02AFF10BB2E8838
:10500000300200F0F9FA824638468B4600F006FB83
:1050100011A3D3E9002300F055FB804630468946B2
:1050200000F0EAFA02460B464046494600F098F97D
:1050300002460B465046594600F06EFC00F054FD07
:10504000E08301E00023E3832A884FF47A73B2FB04
:10505000F3F32384BDE8F88F1F85EB51B81E194088
:10506000C2A507F400300240CDB5E8B588040020A1
:105070002DE9F04FA1B01F92B04A1E911168B04ABD
:10508000914200D0FEE703F11002546911690B94BC
:10509000D468089191680694D48B05919989956993
:1050A0000D9406244C430995958B4FEA81094FEAEC
:1050B000C10B0C954D0005EB010809EB010A189492
:1050C000C1EB0B0C00241F6956681295CDF858806F
:1050D000CDF84C90CDF85CA0CDF854B0CDF864C0BC
:1050E00007940391019313E190F80080DFF860A228
:1050F000039D1AF80840DDF8489036190A9610F812
:1051000005C0904E1AF80C4016F80850169904EB9A
:105110004504E7190E9710F809408B4F1AF8045010
:1051200017F8088010F801B0454416F80C8017F8FD
:105130000C9005EB48051AF80B8016F804C0C14422
:1051400009EB4C0C139BCDF83CC010F803903C5D70
:105150001AF809C016F80B80644404EB48080F9C49
:10516000CDF840804444DDF85C801C9410F808C001
:1051700017F80B801AF80C401899444416F8098067
:1051800017F8099004EB480404EB050BCDF874B054
:1051900010F801801AF808B0D94416F80CB009EBE1
:1051A0004B0BCDF844B00E9B17F80CC05B44DDF8F8
:1051B00064B01B9310F80B9016F808B01AF809A009
:1051C0000F99D4440CEB4B0BDDF828C04FEA051ABD
:1051D000DC44CDF868C0C5EB0A0A17F808C04FF0E8
:1051E0000A0808FB01AA16F80960119BCDF850B017
:1051F0009A44DDF840B00CEB460604EB440CE24464
:1052000017F809704FF0060909FB0BAA06990A9BCB
:105210008A444FF01C0C0CFB03AA0E994FF0150B9F
:105220000BFB01AA1D9BCDF828A04FF02E0A0AFB0C
:1052300003FA1C99302303FB01AA05991A9B5144D8
:105240004FF0240A0AFB03131B99CA440AFB0131DD
:1052500006910F9905EB450509FB015925012C1B0A
:10526000109BA14408FB0399149C119D0CFB04990D
:105270000BFB05990E990A9B0D9C49440591A3F5DA
:10528000003A64B1089D0B990D9B6C1A54445C4321
:1052900048BFFF342412CDF82CA00894A2460C9CE1
:1052A00064B1099DC4F580746C430C9901FB0A44F8
:1052B000002CB8BFFF3424120994A2461F9B03FBA5
:1052C0000AFABAF1000F04DD0AF1080A4FEA2A1AB5
:1052D00006E0BAF1080C48BF0AF1070C4FEA2C1A95
:1052E000019DDDF81C80EC8947F6BC7C04FB08F4CA
:1052F000164DE245B8BFD4461E99159BAC45A8BFD4
:10530000654608F1010821F81450C018CDF81C803A
:10531000148C079DA542FFF6E7AE019B05991F611E
:10532000069B9160D360089D0B99099B566015619F
:1053300051619361204621B0BDE8F08F88040020C0
:10534000CDB5E8B544020020440100204480FFFFB1
:105350004403002081F0004102E000BF83F00043DD
:1053600030B54FEA41044FEA430594EA050F08BF00
:1053700090EA020F1FBF54EA000C55EA020C7FEAC4
:10538000645C7FEA655C00F0E2804FEA5454D4EB41
:105390005555B8BF6D420CDD2C4480EA020281EA0B
:1053A000030382EA000083EA010180EA020281EA43
:1053B0000303362D88BF30BD11F0004F4FEA013195
:1053C0004FF4801C4CEA113102D0404261EB4101A4
:1053D00013F0004F4FEA03334CEA133302D052422A
:1053E00063EB430394EA050F00F0A780A4F10104E6
:1053F000D5F1200E0DDB02FA0EFC22FA05F2801820
:1054000041F1000103FA0EF2801843FA05F3594105
:105410000EE0A5F120050EF1200E012A03FA0EFC84
:1054200028BF4CF0020C43FA05F3C01851EBE371AE
:1054300001F0004507D54FF0000EDCF1000C7EEBCB
:1054400000006EEB0101B1F5801F1BD3B1F5001F09
:105450000CD349085FEA30004FEA3C0C04F1010428
:105460004FEA445212F5800F80F09A80BCF1004F51
:1054700008BF5FEA500C50F1000041EB045141EAD3
:10548000050130BD5FEA4C0C404141EB010111F4D4
:10549000801FA4F10104E9D191F0000F04BF01467F
:1054A0000020B1FA81F308BF2033A3F10B03B3F15D
:1054B00020020CDA0C3208DD02F1140CC2F10C02ED
:1054C00001FA0CF021FA02F10CE002F11402D8BF4B
:1054D000C2F1200C01FA02F120FA0CFCDCBF41EA17
:1054E0000C019040E41AA2BF01EB0451294330BDE6
:1054F0006FEA04041F3C1CDA0C340EDC04F11404C3
:10550000C4F1200220FA04F001FA02F340EA030099
:1055100021FA04F345EA030130BDC4F10C04C4F1DF
:10552000200220FA02F001FA04F340EA03002946BF
:1055300030BD21FA04F0294630BD94F0000F83F409
:10554000801306BF81F480110134013D4EE77FEAEC
:10555000645C18BF7FEA655C29D094EA050F08BF38
:1055600090EA020F05D054EA000C04BF1946104619
:1055700030BD91EA030F1EBF0021002030BD5FEA5D
:10558000545C05D14000494128BF41F0004130BD85
:1055900014F580043CBF01F5801130BD01F00045D9
:1055A00045F0FE4141F470014FF0000030BD7FEA4C
:1055B000645C1ABF194610467FEA655C1CBF0B4647
:1055C000024650EA013406BF52EA033591EA030F5E
:1055D00041F4002130BD00BF90F0000F04BF002156
:1055E000704730B54FF4806404F132044FF0000589
:1055F0004FF0000150E700BF90F0000F04BF002102
:10560000704730B54FF4806404F1320410F0004567
:1056100048BF40424FF000013EE700BF42004FEA62
:10562000E2014FEA31014FEA02701FBF12F07F43DF
:1056300093F07F4F81F06051704792F0000F14BFDC
:1056400093F07F4F704730B54FF4607401F0004520
:1056500021F0004120E700BF50EA010208BF704777
:1056600030B54FF000050AE050EA010208BF70476C
:1056700030B511F0004502D5404261EB41014FF4D5
:10568000806404F132045FEA915C3FF4DCAE4FF0D9
:1056900003025FEADC0C18BF03325FEADC0C18BFC0
:1056A000033202EBDC02C2F1200300FA03FC20FA11
:1056B00002F001FA03FE40EA0E0021FA02F114445E
:1056C000C1E600BF70B54FF0FF0C4CF4E06C1CEA73
:1056D00011541DBF1CEA135594EA0C0F95EA0C0FE8
:1056E00000F0DEF82C4481EA030621EA4C5123EA5B
:1056F0004C5350EA013518BF52EA033541F480118A
:1057000043F4801338D0A0FB02CE4FF00005E1FB3C
:1057100002E506F00042E0FB03E54FF00006E1FB86
:1057200003569CF0000F18BF4EF0010EA4F1FF04C9
:10573000B6F5007F64F5407404D25FEA4E0E6D4109
:1057400046EB060642EAC62141EA55514FEAC5201A
:1057500040EA5E504FEACE2EB4F1FD0C88BFBCF596
:10576000E06F1ED8BEF1004F08BF5FEA500E50F147
:10577000000041EB045170BD06F0004646EA01010D
:1057800040EA020081EA0301B4EB5C04C2BFD4EB3F
:105790000C0541EA045170BD41F480114FF0000E38
:1057A000013C00F3AB8014F1360FDEBF002001F0A6
:1057B000004170BDC4F10004203C35DA0C341BDC20
:1057C00004F11404C4F1200500FA05F320FA04F0F2
:1057D00001FA05F240EA020001F0004221F0004126
:1057E00010EBD37021FA04F642EB06015EEA430E99
:1057F00008BF20EAD37070BDC4F10C04C4F12005C9
:1058000000FA04F320FA05F001FA04F240EA02007B
:1058100001F0004110EBD37041F100015EEA430E4C
:1058200008BF20EAD37070BDC4F1200500FA05F26C
:105830004EEA020E20FA04F301FA05F243EA0203EB
:1058400021FA04F001F0004121FA04F220EA0200FA
:1058500000EBD3705EEA430E08BF20EAD37070BD40
:1058600094F0000F0FD101F00046400041EB010120
:1058700011F4801F08BF013CF7D041EA060195F002
:10588000000F18BF704703F00046520043EB0303BC
:1058900013F4801F08BF013DF7D043EA06037047A9
:1058A00094EA0C0F0CEA135518BF95EA0C0F0CD0B4
:1058B00050EA410618BF52EA4306D1D181EA0301FA
:1058C00001F000414FF0000070BD50EA410606BFF4
:1058D0001046194652EA430619D094EA0C0F02D139
:1058E00050EA013613D195EA0C0F05D152EA03367E
:1058F0001CBF104619460AD181EA030101F000419C
:1059000041F0FE4141F470014FF0000070BD41F0E4
:10591000FE4141F4780170BD70B54FF0FF0C4CF4BE
:10592000E06C1CEA11541DBF1CEA135594EA0C0FDD
:1059300095EA0C0F00F0A7F8A4EB050481EA030E2A
:1059400052EA03354FEA013100F088804FEA033311
:105950004FF0805545EA131343EA12634FEA0222DF
:1059600045EA111545EA10654FEA00260EF00041A0
:105970009D4208BF964244F1FD0404F5407402D2F2
:105980005B084FEA3202B61A65EB03055B084FEA83
:1059900032024FF480104FF4002CB6EB020E75EB80
:1059A000030E22BFB61A754640EA0C005B084FEAA8
:1059B0003202B6EB020E75EB030E22BFB61A754625
:1059C00040EA5C005B084FEA3202B6EB020E75EB70
:1059D000030E22BFB61A754640EA9C005B084FEAE8
:1059E0003202B6EB020E75EB030E22BFB61A7546F5
:1059F00040EADC0055EA060E18D04FEA051545EAE4
:105A000016754FEA06164FEAC30343EA52734FEA8C
:105A1000C2025FEA1C1CC0D111F4801F0BD141EA05
:105A200000014FF000004FF0004CB6E711F4801F6A
:105A300004BF01430020B4F1FD0C88BFBCF5E06F4A
:105A40003FF6AFAEB5EB030C04BFB6EB020C5FEA5A
:105A5000500C50F1000041EB045170BD0EF0004EAF
:105A60004EEA113114EB5C04C2BFD4EB0C0541EAE1
:105A7000045170BD41F480114FF0000E013C90E6DE
:105A800045EA060E8DE60CEA135594EA0C0F08BFA2
:105A900095EA0C0F3FF43BAF94EA0C0F0AD150EAA1
:105AA00001347FF434AF95EA0C0F7FF425AF104634
:105AB00019462CE795EA0C0F06D152EA03353FF45C
:105AC000FDAE1046194622E750EA410618BF52EAD9
:105AD00043067FF4C5AE50EA41047FF40DAF52EAAD
